{
  "address": "0x430e6D2fa6869f9bf3F6718Ce717fD251b79DE33",
  "abi": [
    {
      "inputs": [
        {
          "internalType": "address",
          "name": "_platformWallet",
          "type": "address"
        },
        {
          "internalType": "uint256",
          "name": "interval",
          "type": "uint256"
        },
        {
          "internalType": "address",
          "name": "priceFeed",
          "type": "address"
        },
        {
          "internalType": "uint256",
          "name": "price",
          "type": "uint256"
        }
      ],
      "stateMutability": "nonpayable",
      "type": "constructor"
    },
    {
      "inputs": [
        {
          "internalType": "uint256",
          "name": "currentBalance",
          "type": "uint256"
        },
        {
          "internalType": "uint256",
          "name": "numPlayers",
          "type": "uint256"
        },
        {
          "internalType": "uint256",
          "name": "raffleState",
          "type": "uint256"
        }
      ],
      "name": "Milestones__UpkeepNotNeeded",
      "type": "error"
    },
    {
      "anonymous": false,
      "inputs": [
        {
          "indexed": true,
          "internalType": "address",
          "name": "user",
          "type": "address"
        },
        {
          "indexed": false,
          "internalType": "uint256",
          "name": "totalAmount",
          "type": "uint256"
        }
      ],
      "name": "AllFundsWithdrawn",
      "type": "event"
    },
    {
      "anonymous": false,
      "inputs": [
        {
          "indexed": true,
          "internalType": "address",
          "name": "user",
          "type": "address"
        },
        {
          "indexed": false,
          "internalType": "uint256",
          "name": "amount",
          "type": "uint256"
        }
      ],
      "name": "FundsLocked",
      "type": "event"
    },
    {
      "anonymous": false,
      "inputs": [
        {
          "indexed": true,
          "internalType": "address",
          "name": "user",
          "type": "address"
        },
        {
          "indexed": false,
          "internalType": "uint256",
          "name": "milestone",
          "type": "uint256"
        },
        {
          "indexed": false,
          "internalType": "uint256",
          "name": "amountReleased",
          "type": "uint256"
        }
      ],
      "name": "MilestoneCompleted",
      "type": "event"
    },
    {
      "anonymous": false,
      "inputs": [
        {
          "indexed": true,
          "internalType": "address",
          "name": "creator",
          "type": "address"
        },
        {
          "indexed": false,
          "internalType": "uint256",
          "name": "amount",
          "type": "uint256"
        }
      ],
      "name": "OwnersWithdrawl",
      "type": "event"
    },
    {
      "anonymous": false,
      "inputs": [
        {
          "indexed": false,
          "internalType": "uint256",
          "name": "amount",
          "type": "uint256"
        }
      ],
      "name": "PriceChange",
      "type": "event"
    },
    {
      "inputs": [
        {
          "internalType": "uint256",
          "name": "amount",
          "type": "uint256"
        }
      ],
      "name": "changeMileStonePrice",
      "outputs": [],
      "stateMutability": "nonpayable",
      "type": "function"
    },
    {
      "inputs": [
        {
          "internalType": "bytes",
          "name": "",
          "type": "bytes"
        }
      ],
      "name": "checkUpkeep",
      "outputs": [
        {
          "internalType": "bool",
          "name": "upkeepNeeded",
          "type": "bool"
        },
        {
          "internalType": "bytes",
          "name": "",
          "type": "bytes"
        }
      ],
      "stateMutability": "view",
      "type": "function"
    },
    {
      "inputs": [
        {
          "internalType": "string",
          "name": "productId",
          "type": "string"
        }
      ],
      "name": "completeMilestone",
      "outputs": [],
      "stateMutability": "nonpayable",
      "type": "function"
    },
    {
      "inputs": [],
      "name": "getCurrentTimestamp",
      "outputs": [
        {
          "internalType": "uint256",
          "name": "",
          "type": "uint256"
        }
      ],
      "stateMutability": "view",
      "type": "function"
    },
    {
      "inputs": [],
      "name": "getMainNetBalance",
      "outputs": [
        {
          "internalType": "uint256",
          "name": "",
          "type": "uint256"
        }
      ],
      "stateMutability": "view",
      "type": "function"
    },
    {
      "inputs": [],
      "name": "getOwnerBalance",
      "outputs": [
        {
          "internalType": "uint256",
          "name": "",
          "type": "uint256"
        }
      ],
      "stateMutability": "view",
      "type": "function"
    },
    {
      "inputs": [],
      "name": "getPrice",
      "outputs": [
        {
          "internalType": "uint256",
          "name": "",
          "type": "uint256"
        }
      ],
      "stateMutability": "view",
      "type": "function"
    },
    {
      "inputs": [],
      "name": "getPriceFeed",
      "outputs": [
        {
          "internalType": "contract AggregatorV3Interface",
          "name": "",
          "type": "address"
        }
      ],
      "stateMutability": "view",
      "type": "function"
    },
    {
      "inputs": [
        {
          "internalType": "string",
          "name": "productId",
          "type": "string"
        }
      ],
      "name": "getUserMilestoneDetails",
      "outputs": [
        {
          "components": [
            {
              "internalType": "address",
              "name": "creator",
              "type": "address"
            },
            {
              "internalType": "uint256",
              "name": "totalMilestones",
              "type": "uint256"
            },
            {
              "internalType": "uint256",
              "name": "totalAmount",
              "type": "uint256"
            },
            {
              "internalType": "uint256",
              "name": "milestoneCompleted",
              "type": "uint256"
            },
            {
              "internalType": "uint256",
              "name": "amountWithdrawn",
              "type": "uint256"
            },
            {
              "internalType": "uint256",
              "name": "createdAt",
              "type": "uint256"
            },
            {
              "internalType": "bool",
              "name": "isCompleted",
              "type": "bool"
            },
            {
              "internalType": "uint256",
              "name": "endsAt",
              "type": "uint256"
            }
          ],
          "internalType": "struct MileStones.Milestone",
          "name": "",
          "type": "tuple"
        }
      ],
      "stateMutability": "view",
      "type": "function"
    },
    {
      "inputs": [],
      "name": "getUserMilestonePrice",
      "outputs": [
        {
          "internalType": "uint256",
          "name": "",
          "type": "uint256"
        }
      ],
      "stateMutability": "view",
      "type": "function"
    },
    {
      "inputs": [
        {
          "internalType": "string",
          "name": "productId",
          "type": "string"
        }
      ],
      "name": "lockFunds",
      "outputs": [],
      "stateMutability": "payable",
      "type": "function"
    },
    {
      "inputs": [
        {
          "internalType": "uint256",
          "name": "amount",
          "type": "uint256"
        }
      ],
      "name": "ownersWithdrawl",
      "outputs": [],
      "stateMutability": "nonpayable",
      "type": "function"
    },
    {
      "inputs": [
        {
          "internalType": "bytes",
          "name": "",
          "type": "bytes"
        }
      ],
      "name": "performUpkeep",
      "outputs": [],
      "stateMutability": "nonpayable",
      "type": "function"
    },
    {
      "inputs": [],
      "name": "s_priceFeed",
      "outputs": [
        {
          "internalType": "contract AggregatorV3Interface",
          "name": "",
          "type": "address"
        }
      ],
      "stateMutability": "view",
      "type": "function"
    }
  ],
  "transactionHash": "0xae710cabdeae1f20cad71f5dd8231680921f4c010919c96be1be2aa386399d13",
  "args": [
    "0x591dbdE55Fe58711B4B8089688a4EF4DBae6102f",
    259200,
    "0xd30e2101a97dcbAeBCBC04F14C3f624E67A35165",
    1
  ],
  "numDeployments": 3,
  "solcInputHash": "b1bccee663e6a915856920bf7ef011c7",
  "bytecode": "0x60a060405234801561001057600080fd5b50604051612fef380380612fef833981810160405281019061003291906101e3565b600073ffffffffffffffffffffffffffffffffffffffff168473ffffffffffffffffffffffffffffffffffffffff16036100a1576040517f08c379a0000000000000000000000000000000000000000000000000000000008152600401610098906102a7565b60405180910390fd5b83600260006101000a81548173ffffffffffffffffffffffffffffffffffffffff021916908373ffffffffffffffffffffffffffffffffffffffff160217905550600060018190555042600481905550826080818152505081600660016101000a81548173ffffffffffffffffffffffffffffffffffffffff021916908373ffffffffffffffffffffffffffffffffffffffff16021790555080600581905550505050506102c7565b600080fd5b600073ffffffffffffffffffffffffffffffffffffffff82169050919050565b600061017a8261014f565b9050919050565b61018a8161016f565b811461019557600080fd5b50565b6000815190506101a781610181565b92915050565b6000819050919050565b6101c0816101ad565b81146101cb57600080fd5b50565b6000815190506101dd816101b7565b92915050565b600080600080608085870312156101fd576101fc61014a565b5b600061020b87828801610198565b945050602061021c878288016101ce565b935050604061022d87828801610198565b925050606061023e878288016101ce565b91505092959194509250565b600082825260208201905092915050565b7f496e76616c696420706c6174666f726d2077616c6c6574000000000000000000600082015250565b600061029160178361024a565b915061029c8261025b565b602082019050919050565b600060208201905081810360008301526102c081610284565b9050919050565b608051612d0d6102e26000396000610ff80152612d0d6000f3fe6080604052600436106100dd5760003560e01c80636c9230db1161007f57806398d5fdca1161005957806398d5fdca1461029e5780639e87a5cd146102c9578063cf07da44146102f4578063faf57b701461031f576100dd565b80636c9230db1461020c5780636e04ff0d146102375780638dd8fc0e14610275576100dd565b8063151802e9116100bb578063151802e9146101735780634585e33b1461018f5780634e2de673146101b8578063590791f2146101e1576100dd565b8063019b61ed146100e257806304afe05f1461011f5780630ec3b02714610148575b600080fd5b3480156100ee57600080fd5b5061010960048036038101906101049190611b12565b61034a565b6040516101169190611c72565b60405180910390f35b34801561012b57600080fd5b5061014660048036038101906101419190611cba565b610430565b005b34801561015457600080fd5b5061015d610501565b60405161016a9190611d46565b60405180910390f35b61018d60048036038101906101889190611b12565b610527565b005b34801561019b57600080fd5b506101b660048036038101906101b19190611dc1565b6108c9565b005b3480156101c457600080fd5b506101df60048036038101906101da9190611cba565b610d75565b005b3480156101ed57600080fd5b506101f6610f13565b6040516102039190611e1d565b60405180910390f35b34801561021857600080fd5b50610221610fad565b60405161022e9190611e1d565b60405180910390f35b34801561024357600080fd5b5061025e60048036038101906102599190611ed9565b610fb5565b60405161026c929190611fb0565b60405180910390f35b34801561028157600080fd5b5061029c60048036038101906102979190611b12565b61109d565b005b3480156102aa57600080fd5b506102b3611653565b6040516102c09190611e1d565b60405180910390f35b3480156102d557600080fd5b506102de611662565b6040516102eb9190611d46565b60405180910390f35b34801561030057600080fd5b5061030961168c565b6040516103169190611e1d565b60405180910390f35b34801561032b57600080fd5b50610334611696565b6040516103419190611e1d565b60405180910390f35b610352611877565b6000826040516103629190612027565b9081526020016040518091039020604051806101000160405290816000820160009054906101000a900473ffffffffffffffffffffffffffffffffffffffff1673ffffffffffffffffffffffffffffffffffffffff1673ffffffffffffffffffffffffffffffffffffffff16815260200160018201548152602001600282015481526020016003820154815260200160048201548152602001600582015481526020016006820160009054906101000a900460ff161515151581526020016007820154815250509050919050565b3373ffffffffffffffffffffffffffffffffffffffff16600260009054906101000a900473ffffffffffffffffffffffffffffffffffffffff1673ffffffffffffffffffffffffffffffffffffffff16146104c0576040517f08c379a00000000000000000000000000000000000000000000000000000000081526004016104b7906120c1565b60405180910390fd5b806005819055507ff347ee99503bf19c028bd6b18f3c676e82a9bb5b2bb5225aebe0fd62fd6a0d19816040516104f69190611e1d565b60405180910390a150565b600660019054906101000a900473ffffffffffffffffffffffffffffffffffffffff1681565b600060126005546105389190612250565b90506000610571600660019054906101000a900473ffffffffffffffffffffffffffffffffffffffff16346116c890919063ffffffff16565b90506105b26040518060400160405280601381526020017f636f6e747261637420656e74727920726174650000000000000000000000000081525082611704565b6105f16040518060400160405280601281526020017f636f6e747261637420656e74727920666565000000000000000000000000000081525083611704565b81610627600660019054906101000a900473ffffffffffffffffffffffffffffffffffffffff16346116c890919063ffffffff16565b1015610668576040517f08c379a000000000000000000000000000000000000000000000000000000000815260040161065f9061230d565b60405180910390fd5b600080846040516106799190612027565b908152602001604051809103902060020154146106cb576040517f08c379a00000000000000000000000000000000000000000000000000000000081526004016106c290612379565b60405180910390fd5b6003839080600181540180825580915050600190039060005260206000200160009091909190915090816106ff919061259b565b5060006064600534610711919061266d565b61071b91906126de565b90506000813461072b919061270f565b9050816001600082825461073f9190612743565b92505081905550600062093a80426107579190612743565b90506040518061010001604052803373ffffffffffffffffffffffffffffffffffffffff168152602001600581526020018381526020016000815260200160008152602001428152602001600015158152602001828152506000876040516107bf9190612027565b908152602001604051809103902060008201518160000160006101000a81548173ffffffffffffffffffffffffffffffffffffffff021916908373ffffffffffffffffffffffffffffffffffffffff1602179055506020820151816001015560408201518160020155606082015181600301556080820151816004015560a0820151816005015560c08201518160060160006101000a81548160ff02191690831515021790555060e082015181600701559050503373ffffffffffffffffffffffffffffffffffffffff167f1423e2a671bcc71c56f3c3cb78e3c96473d3ca5eb061acd0b93d1d0a6617f658836040516108b99190611e1d565b60405180910390a2505050505050565b60006108e360405180602001604052806000815250610fb5565b509050806109525747600380549050600660009054906101000a900460ff16600181111561091457610913612777565b5b6040517f50ca6743000000000000000000000000000000000000000000000000000000008152600401610949939291906127a6565b60405180910390fd5b6001600660006101000a81548160ff0219169083600181111561097857610977612777565b5b021790555060006003805480602002602001604051908101604052809291908181526020016000905b82821015610a4d5783829060005260206000200180546109c0906123c8565b80601f01602080910402602001604051908101604052809291908181526020018280546109ec906123c8565b8015610a395780601f10610a0e57610100808354040283529160200191610a39565b820191906000526020600020905b815481529060010190602001808311610a1c57829003601f168201915b5050505050815260200190600101906109a1565b505050509050600060015490506000805b8351811015610ad2576000848281518110610a7c57610a7b6127dd565b5b6020026020010151905060008082604051610a979190612027565b908152602001604051809103902090504281600701541115610ac357600184610ac09190612743565b93505b50508080600101915050610a5e565b5060008167ffffffffffffffff811115610aef57610aee6119e7565b5b604051908082528060200260200182016040528015610b2257816020015b6060815260200190600190039081610b0d5790505b5090506000915060005b8451811015610d1b576000858281518110610b4a57610b496127dd565b5b6020026020010151905060008082604051610b659190612027565b908152602001604051809103902090504281600701541115610bce57868381518110610b9457610b936127dd565b5b6020026020010151848681518110610baf57610bae6127dd565b5b6020026020010181905250600185610bc79190612743565b9450610c1a565b80600401548160020154610be2919061270f565b86610bed9190612743565b955060018160060160006101000a81548160ff021916908315150217905550806002015481600401819055505b80600083604051610c2b9190612027565b90815260200160405180910390206000820160009054906101000a900473ffffffffffffffffffffffffffffffffffffffff168160000160006101000a81548173ffffffffffffffffffffffffffffffffffffffff021916908373ffffffffffffffffffffffffffffffffffffffff16021790555060018201548160010155600282015481600201556003820154816003015560048201548160040155600582015481600501556006820160009054906101000a900460ff168160060160006101000a81548160ff0219169083151502179055506007820154816007015590505050508080600101915050610b2c565b50826001819055508060039080519060200190610d399291906118d4565b50426004819055506000600660006101000a81548160ff02191690836001811115610d6757610d66612777565b5b021790555050505050505050565b3373ffffffffffffffffffffffffffffffffffffffff16600260009054906101000a900473ffffffffffffffffffffffffffffffffffffffff1673ffffffffffffffffffffffffffffffffffffffff1614610e05576040517f08c379a0000000000000000000000000000000000000000000000000000000008152600401610dfc906120c1565b60405180910390fd5b60646046600154610e16919061266d565b610e2091906126de565b811115610e62576040517f08c379a0000000000000000000000000000000000000000000000000000000008152600401610e5990612858565b60405180910390fd5b3373ffffffffffffffffffffffffffffffffffffffff166108fc829081150290604051600060405180830381858888f19350505050158015610ea8573d6000803e3d6000fd5b508060016000828254610ebb919061270f565b925050819055503373ffffffffffffffffffffffffffffffffffffffff167fd6f42bc80d79f51c5ffb3438f457e9355868cd0f02ccdd4d946494f962f4ac0782604051610f089190611e1d565b60405180910390a250565b60003373ffffffffffffffffffffffffffffffffffffffff16600260009054906101000a900473ffffffffffffffffffffffffffffffffffffffff1673ffffffffffffffffffffffffffffffffffffffff1614610fa5576040517f08c379a0000000000000000000000000000000000000000000000000000000008152600401610f9c906120c1565b60405180910390fd5b600154905090565b600042905090565b600060606000600660009054906101000a900460ff166001811115610fdd57610fdc612777565b5b60006001811115610ff157610ff0612777565b5b14905060007f000000000000000000000000000000000000000000000000000000000000000060045442611025919061270f565b119050600080600380549050119050600080471190508280156110455750835b801561104e5750805b80156110575750815b9550856040518060400160405280600381526020017f30783000000000000000000000000000000000000000000000000000000000008152509550955050505050915091565b803373ffffffffffffffffffffffffffffffffffffffff166000826040516110c59190612027565b908152602001604051809103902060000160009054906101000a900473ffffffffffffffffffffffffffffffffffffffff1673ffffffffffffffffffffffffffffffffffffffff161461114d576040517f08c379a0000000000000000000000000000000000000000000000000000000008152600401611144906128ea565b60405180910390fd5b6000808360405161115e9190612027565b9081526020016040518091039020905060008160020154116111b5576040517f08c379a00000000000000000000000000000000000000000000000000000000081526004016111ac90612956565b60405180910390fd5b42816007015410156111fc576040517f08c379a00000000000000000000000000000000000000000000000000000000081526004016111f3906129c2565b60405180910390fd5b8060010154816003015410611246576040517f08c379a000000000000000000000000000000000000000000000000000000000815260040161123d90612a2e565b60405180910390fd5b60008160010154826002015461125c91906126de565b905081600301600081548092919061127390612a4e565b919050555081600101548260030154036115965760006003805480602002602001604051908101604052809291908181526020016000905b828210156113575783829060005260206000200180546112ca906123c8565b80601f01602080910402602001604051908101604052809291908181526020018280546112f6906123c8565b80156113435780601f1061131857610100808354040283529160200191611343565b820191906000526020600020905b81548152906001019060200180831161132657829003601f168201915b5050505050815260200190600101906112ab565b50505050905060006001825161136d919061270f565b67ffffffffffffffff811115611386576113856119e7565b5b6040519080825280602002602001820160405280156113b957816020015b60608152602001906001900390816113a45790505b5090506000805b835181101561148c57876040516020016113da9190612027565b60405160208183030381529060405280519060200120848281518110611403576114026127dd565b5b602002602001015160405160200161141b9190612027565b604051602081830303815290604052805190602001201461147f57838181518110611449576114486127dd565b5b6020026020010151838381518110611464576114636127dd565b5b602002602001018190525060018261147c9190612743565b91505b80806001019150506113c0565b5081600390805190602001906114a39291906118d4565b506000856004015486600201546114ba919061270f565b9050808660040160008282546114d09190612743565b9250508190555060018660060160006101000a81548160ff0219169083151502179055503373ffffffffffffffffffffffffffffffffffffffff166108fc829081150290604051600060405180830381858888f1935050505015801561153a573d6000803e3d6000fd5b503373ffffffffffffffffffffffffffffffffffffffff167fd867cfadc420a62f8ddbfaf0ee08af17bef908fdeb647de660511cebe642486c87600201546040516115859190611e1d565b60405180910390a25050505061164d565b808260040160008282546115aa9190612743565b925050819055503373ffffffffffffffffffffffffffffffffffffffff166108fc829081150290604051600060405180830381858888f193505050501580156115f7573d6000803e3d6000fd5b503373ffffffffffffffffffffffffffffffffffffffff167ff43bfc498688ec8f5ca2efe35ba87cb7b4f33c139cb2dc8e3f795527e3f08ccc836003015483604051611644929190612a96565b60405180910390a25b50505050565b60008060055490508091505090565b6000600660019054906101000a900473ffffffffffffffffffffffffffffffffffffffff16905090565b6000600554905090565b60006116c3600660019054906101000a900473ffffffffffffffffffffffffffffffffffffffff166117a0565b905090565b6000806116d4836117a0565b90506000670de0b6b3a764000085836116ed919061266d565b6116f791906126de565b9050809250505092915050565b61179c828260405160240161171a929190612af8565b6040516020818303038152906040527fb60e72cc000000000000000000000000000000000000000000000000000000007bffffffffffffffffffffffffffffffffffffffffffffffffffffffff19166020820180517bffffffffffffffffffffffffffffffffffffffffffffffffffffffff8381831617835250505050611831565b5050565b6000808273ffffffffffffffffffffffffffffffffffffffff1663feaf968c6040518163ffffffff1660e01b815260040160a060405180830381865afa1580156117ee573d6000803e3d6000fd5b505050506040513d601f19601f820116820180604052508101906118129190612bb5565b5050509150506402540be400816118299190612c30565b915050919050565b6118488161184061184b61186c565b63ffffffff16565b50565b60006a636f6e736f6c652e6c6f679050600080835160208501845afa505050565b61192d819050919050565b604051806101000160405280600073ffffffffffffffffffffffffffffffffffffffff1681526020016000815260200160008152602001600081526020016000815260200160008152602001600015158152602001600081525090565b82805482825590600052602060002090810192821561191c579160200282015b8281111561191b57825182908161190b919061259b565b50916020019190600101906118f4565b5b5090506119299190611937565b5090565b611935612ca8565b565b5b80821115611957576000818161194e919061195b565b50600101611938565b5090565b508054611967906123c8565b6000825580601f106119795750611998565b601f016020900490600052602060002090810190611997919061199b565b5b50565b5b808211156119b457600081600090555060010161199c565b5090565b6000604051905090565b600080fd5b600080fd5b600080fd5b600080fd5b6000601f19601f8301169050919050565b7f4e487b7100000000000000000000000000000000000000000000000000000000600052604160045260246000fd5b611a1f826119d6565b810181811067ffffffffffffffff82111715611a3e57611a3d6119e7565b5b80604052505050565b6000611a516119b8565b9050611a5d8282611a16565b919050565b600067ffffffffffffffff821115611a7d57611a7c6119e7565b5b611a86826119d6565b9050602081019050919050565b82818337600083830152505050565b6000611ab5611ab084611a62565b611a47565b905082815260208101848484011115611ad157611ad06119d1565b5b611adc848285611a93565b509392505050565b600082601f830112611af957611af86119cc565b5b8135611b09848260208601611aa2565b91505092915050565b600060208284031215611b2857611b276119c2565b5b600082013567ffffffffffffffff811115611b4657611b456119c7565b5b611b5284828501611ae4565b91505092915050565b600073ffffffffffffffffffffffffffffffffffffffff82169050919050565b6000611b8682611b5b565b9050919050565b611b9681611b7b565b82525050565b6000819050919050565b611baf81611b9c565b82525050565b60008115159050919050565b611bca81611bb5565b82525050565b61010082016000820151611be76000850182611b8d565b506020820151611bfa6020850182611ba6565b506040820151611c0d6040850182611ba6565b506060820151611c206060850182611ba6565b506080820151611c336080850182611ba6565b5060a0820151611c4660a0850182611ba6565b5060c0820151611c5960c0850182611bc1565b5060e0820151611c6c60e0850182611ba6565b50505050565b600061010082019050611c886000830184611bd0565b92915050565b611c9781611b9c565b8114611ca257600080fd5b50565b600081359050611cb481611c8e565b92915050565b600060208284031215611cd057611ccf6119c2565b5b6000611cde84828501611ca5565b91505092915050565b6000819050919050565b6000611d0c611d07611d0284611b5b565b611ce7565b611b5b565b9050919050565b6000611d1e82611cf1565b9050919050565b6000611d3082611d13565b9050919050565b611d4081611d25565b82525050565b6000602082019050611d5b6000830184611d37565b92915050565b600080fd5b600080fd5b60008083601f840112611d8157611d806119cc565b5b8235905067ffffffffffffffff811115611d9e57611d9d611d61565b5b602083019150836001820283011115611dba57611db9611d66565b5b9250929050565b60008060208385031215611dd857611dd76119c2565b5b600083013567ffffffffffffffff811115611df657611df56119c7565b5b611e0285828601611d6b565b92509250509250929050565b611e1781611b9c565b82525050565b6000602082019050611e326000830184611e0e565b92915050565b600067ffffffffffffffff821115611e5357611e526119e7565b5b611e5c826119d6565b9050602081019050919050565b6000611e7c611e7784611e38565b611a47565b905082815260208101848484011115611e9857611e976119d1565b5b611ea3848285611a93565b509392505050565b600082601f830112611ec057611ebf6119cc565b5b8135611ed0848260208601611e69565b91505092915050565b600060208284031215611eef57611eee6119c2565b5b600082013567ffffffffffffffff811115611f0d57611f0c6119c7565b5b611f1984828501611eab565b91505092915050565b611f2b81611bb5565b82525050565b600081519050919050565b600082825260208201905092915050565b60005b83811015611f6b578082015181840152602081019050611f50565b60008484015250505050565b6000611f8282611f31565b611f8c8185611f3c565b9350611f9c818560208601611f4d565b611fa5816119d6565b840191505092915050565b6000604082019050611fc56000830185611f22565b8181036020830152611fd78184611f77565b90509392505050565b600081519050919050565b600081905092915050565b600061200182611fe0565b61200b8185611feb565b935061201b818560208601611f4d565b80840191505092915050565b60006120338284611ff6565b915081905092915050565b600082825260208201905092915050565b7f4f6e6c792074686520706c6174666f726d2077616c6c65742063616e2070657260008201527f666f726d207468697320616374696f6e00000000000000000000000000000000602082015250565b60006120ab60308361203e565b91506120b68261204f565b604082019050919050565b600060208201905081810360008301526120da8161209e565b9050919050565b7f4e487b7100000000000000000000000000000000000000000000000000000000600052601160045260246000fd5b60008160011c9050919050565b6000808291508390505b600185111561216757808604811115612143576121426120e1565b5b60018516156121525780820291505b808102905061216085612110565b9450612127565b94509492505050565b600082612180576001905061223c565b8161218e576000905061223c565b81600181146121a457600281146121ae576121dd565b600191505061223c565b60ff8411156121c0576121bf6120e1565b5b8360020a9150848211156121d7576121d66120e1565b5b5061223c565b5060208310610133831016604e8410600b84101617156122125782820a90508381111561220d5761220c6120e1565b5b61223c565b61221f848484600161211d565b92509050818404811115612236576122356120e1565b5b81810290505b9392505050565b600060ff82169050919050565b600061225b82611b9c565b915061226683612243565b92506122937fffffffffffffffffffffffffffffffffffffffffffffffffffffffffffffffff8484612170565b905092915050565b7f53656e7420616d6f756e74206d75737420626520686967686572207468616e2060008201527f656e747279206665650000000000000000000000000000000000000000000000602082015250565b60006122f760298361203e565b91506123028261229b565b604082019050919050565b60006020820190508181036000830152612326816122ea565b9050919050565b7f5573657220616c7265616479206c6f636b65642066756e647300000000000000600082015250565b600061236360198361203e565b915061236e8261232d565b602082019050919050565b6000602082019050818103600083015261239281612356565b9050919050565b7f4e487b7100000000000000000000000000000000000000000000000000000000600052602260045260246000fd5b600060028204905060018216806123e057607f821691505b6020821081036123f3576123f2612399565b5b50919050565b60008190508160005260206000209050919050565b60006020601f8301049050919050565b600082821b905092915050565b60006008830261245b7fffffffffffffffffffffffffffffffffffffffffffffffffffffffffffffffff8261241e565b612465868361241e565b95508019841693508086168417925050509392505050565b600061249861249361248e84611b9c565b611ce7565b611b9c565b9050919050565b6000819050919050565b6124b28361247d565b6124c66124be8261249f565b84845461242b565b825550505050565b600090565b6124db6124ce565b6124e68184846124a9565b505050565b5b8181101561250a576124ff6000826124d3565b6001810190506124ec565b5050565b601f82111561254f57612520816123f9565b6125298461240e565b81016020851015612538578190505b61254c6125448561240e565b8301826124eb565b50505b505050565b600082821c905092915050565b600061257260001984600802612554565b1980831691505092915050565b600061258b8383612561565b9150826002028217905092915050565b6125a482611fe0565b67ffffffffffffffff8111156125bd576125bc6119e7565b5b6125c782546123c8565b6125d282828561250e565b600060209050601f83116001811461260557600084156125f3578287015190505b6125fd858261257f565b865550612665565b601f198416612613866123f9565b60005b8281101561263b57848901518255600182019150602085019450602081019050612616565b868310156126585784890151612654601f891682612561565b8355505b6001600288020188555050505b505050505050565b600061267882611b9c565b915061268383611b9c565b925082820261269181611b9c565b915082820484148315176126a8576126a76120e1565b5b5092915050565b7f4e487b7100000000000000000000000000000000000000000000000000000000600052601260045260246000fd5b60006126e982611b9c565b91506126f483611b9c565b925082612704576127036126af565b5b828204905092915050565b600061271a82611b9c565b915061272583611b9c565b925082820390508181111561273d5761273c6120e1565b5b92915050565b600061274e82611b9c565b915061275983611b9c565b9250828201905080821115612771576127706120e1565b5b92915050565b7f4e487b7100000000000000000000000000000000000000000000000000000000600052602160045260246000fd5b60006060820190506127bb6000830186611e0e565b6127c86020830185611e0e565b6127d56040830184611e0e565b949350505050565b7f4e487b7100000000000000000000000000000000000000000000000000000000600052603260045260246000fd5b7f416d6f756e74206578636565647320636f6c6c65637465642066756e64730000600082015250565b6000612842601e8361203e565b915061284d8261280c565b602082019050919050565b6000602082019050818103600083015261287181612835565b9050919050565b7f4f6e6c79207468652063726561746f722077616c6c65742063616e207065726660008201527f6f726d207468697320616374696f6e0000000000000000000000000000000000602082015250565b60006128d4602f8361203e565b91506128df82612878565b604082019050919050565b60006020820190508181036000830152612903816128c7565b9050919050565b7f4e6f2066756e6473206c6f636b65640000000000000000000000000000000000600082015250565b6000612940600f8361203e565b915061294b8261290a565b602082019050919050565b6000602082019050818103600083015261296f81612933565b9050919050565b7f4d696c6573746f6e652045787069726564000000000000000000000000000000600082015250565b60006129ac60118361203e565b91506129b782612976565b602082019050919050565b600060208201905081810360008301526129db8161299f565b9050919050565b7f416c6c206d696c6573746f6e657320616c726561647920636f6d706c65746564600082015250565b6000612a1860208361203e565b9150612a23826129e2565b602082019050919050565b60006020820190508181036000830152612a4781612a0b565b9050919050565b6000612a5982611b9c565b91507fffffffffffffffffffffffffffffffffffffffffffffffffffffffffffffffff8203612a8b57612a8a6120e1565b5b600182019050919050565b6000604082019050612aab6000830185611e0e565b612ab86020830184611e0e565b9392505050565b6000612aca82611fe0565b612ad4818561203e565b9350612ae4818560208601611f4d565b612aed816119d6565b840191505092915050565b60006040820190508181036000830152612b128185612abf565b9050612b216020830184611e0e565b9392505050565b600069ffffffffffffffffffff82169050919050565b612b4781612b28565b8114612b5257600080fd5b50565b600081519050612b6481612b3e565b92915050565b6000819050919050565b612b7d81612b6a565b8114612b8857600080fd5b50565b600081519050612b9a81612b74565b92915050565b600081519050612baf81611c8e565b92915050565b600080600080600060a08688031215612bd157612bd06119c2565b5b6000612bdf88828901612b55565b9550506020612bf088828901612b8b565b9450506040612c0188828901612ba0565b9350506060612c1288828901612ba0565b9250506080612c2388828901612b55565b9150509295509295909350565b6000612c3b82612b6a565b9150612c4683612b6a565b9250828202612c5481612b6a565b91507f80000000000000000000000000000000000000000000000000000000000000008414600084121615612c8c57612c8b6120e1565b5b8282058414831517612ca157612ca06120e1565b5b5092915050565b7f4e487b7100000000000000000000000000000000000000000000000000000000600052605160045260246000fdfea26469706673582212209c923620f48a3b7448d612e98df6f14c423638447d0b9481ef2de29ee6042f5164736f6c634300081c0033",
  "devdoc": {
    "kind": "dev",
    "methods": {},
    "version": 1
  },
  "userdoc": {
    "kind": "user",
    "methods": {},
    "version": 1
  },
  "storageLayout": {
    "storage": [
      {
        "astId": 108,
        "contract": "contracts/MileStones.sol:MileStones",
        "label": "products",
        "offset": 0,
        "slot": "0",
        "type": "t_mapping(t_string_memory_ptr,t_struct(Milestone)103_storage)"
      },
      {
        "astId": 116,
        "contract": "contracts/MileStones.sol:MileStones",
        "label": "owner_balance",
        "offset": 0,
        "slot": "1",
        "type": "t_uint256"
      },
      {
        "astId": 118,
        "contract": "contracts/MileStones.sol:MileStones",
        "label": "platformWallet",
        "offset": 0,
        "slot": "2",
        "type": "t_address"
      },
      {
        "astId": 121,
        "contract": "contracts/MileStones.sol:MileStones",
        "label": "activeMilestones",
        "offset": 0,
        "slot": "3",
        "type": "t_array(t_string_storage)dyn_storage"
      },
      {
        "astId": 125,
        "contract": "contracts/MileStones.sol:MileStones",
        "label": "s_lastTimeStamp",
        "offset": 0,
        "slot": "4",
        "type": "t_uint256"
      },
      {
        "astId": 127,
        "contract": "contracts/MileStones.sol:MileStones",
        "label": "s_milestone_price",
        "offset": 0,
        "slot": "5",
        "type": "t_uint256"
      },
      {
        "astId": 160,
        "contract": "contracts/MileStones.sol:MileStones",
        "label": "s_milestoneState",
        "offset": 0,
        "slot": "6",
        "type": "t_enum(MileStoneState)86"
      },
      {
        "astId": 163,
        "contract": "contracts/MileStones.sol:MileStones",
        "label": "s_priceFeed",
        "offset": 1,
        "slot": "6",
        "type": "t_contract(AggregatorV3Interface)64"
      }
    ],
    "types": {
      "t_address": {
        "encoding": "inplace",
        "label": "address",
        "numberOfBytes": "20"
      },
      "t_array(t_string_storage)dyn_storage": {
        "base": "t_string_storage",
        "encoding": "dynamic_array",
        "label": "string[]",
        "numberOfBytes": "32"
      },
      "t_bool": {
        "encoding": "inplace",
        "label": "bool",
        "numberOfBytes": "1"
      },
      "t_contract(AggregatorV3Interface)64": {
        "encoding": "inplace",
        "label": "contract AggregatorV3Interface",
        "numberOfBytes": "20"
      },
      "t_enum(MileStoneState)86": {
        "encoding": "inplace",
        "label": "enum MileStones.MileStoneState",
        "numberOfBytes": "1"
      },
      "t_mapping(t_string_memory_ptr,t_struct(Milestone)103_storage)": {
        "encoding": "mapping",
        "key": "t_string_memory_ptr",
        "label": "mapping(string => struct MileStones.Milestone)",
        "numberOfBytes": "32",
        "value": "t_struct(Milestone)103_storage"
      },
      "t_string_memory_ptr": {
        "encoding": "bytes",
        "label": "string",
        "numberOfBytes": "32"
      },
      "t_string_storage": {
        "encoding": "bytes",
        "label": "string",
        "numberOfBytes": "32"
      },
      "t_struct(Milestone)103_storage": {
        "encoding": "inplace",
        "label": "struct MileStones.Milestone",
        "members": [
          {
            "astId": 88,
            "contract": "contracts/MileStones.sol:MileStones",
            "label": "creator",
            "offset": 0,
            "slot": "0",
            "type": "t_address"
          },
          {
            "astId": 90,
            "contract": "contracts/MileStones.sol:MileStones",
            "label": "totalMilestones",
            "offset": 0,
            "slot": "1",
            "type": "t_uint256"
          },
          {
            "astId": 92,
            "contract": "contracts/MileStones.sol:MileStones",
            "label": "totalAmount",
            "offset": 0,
            "slot": "2",
            "type": "t_uint256"
          },
          {
            "astId": 94,
            "contract": "contracts/MileStones.sol:MileStones",
            "label": "milestoneCompleted",
            "offset": 0,
            "slot": "3",
            "type": "t_uint256"
          },
          {
            "astId": 96,
            "contract": "contracts/MileStones.sol:MileStones",
            "label": "amountWithdrawn",
            "offset": 0,
            "slot": "4",
            "type": "t_uint256"
          },
          {
            "astId": 98,
            "contract": "contracts/MileStones.sol:MileStones",
            "label": "createdAt",
            "offset": 0,
            "slot": "5",
            "type": "t_uint256"
          },
          {
            "astId": 100,
            "contract": "contracts/MileStones.sol:MileStones",
            "label": "isCompleted",
            "offset": 0,
            "slot": "6",
            "type": "t_bool"
          },
          {
            "astId": 102,
            "contract": "contracts/MileStones.sol:MileStones",
            "label": "endsAt",
            "offset": 0,
            "slot": "7",
            "type": "t_uint256"
          }
        ],
        "numberOfBytes": "256"
      },
      "t_uint256": {
        "encoding": "inplace",
        "label": "uint256",
        "numberOfBytes": "32"
      }
    }
  }
}