{
  "address": "0x5FbDB2315678afecb367f032d93F642f64180aa3",
  "abi": [
    {
      "inputs": [
        {
          "internalType": "address",
          "name": "_platformWallet",
          "type": "address"
        },
        {
          "internalType": "uint256",
          "name": "interval",
          "type": "uint256"
        },
        {
          "internalType": "uint256",
          "name": "price",
          "type": "uint256"
        }
      ],
      "stateMutability": "nonpayable",
      "type": "constructor"
    },
    {
      "inputs": [
        {
          "internalType": "uint256",
          "name": "currentBalance",
          "type": "uint256"
        },
        {
          "internalType": "uint256",
          "name": "numPlayers",
          "type": "uint256"
        },
        {
          "internalType": "uint256",
          "name": "raffleState",
          "type": "uint256"
        }
      ],
      "name": "Milestones__UpkeepNotNeeded",
      "type": "error"
    },
    {
      "anonymous": false,
      "inputs": [
        {
          "indexed": true,
          "internalType": "address",
          "name": "user",
          "type": "address"
        },
        {
          "indexed": false,
          "internalType": "uint256",
          "name": "totalAmount",
          "type": "uint256"
        }
      ],
      "name": "AllFundsWithdrawn",
      "type": "event"
    },
    {
      "anonymous": false,
      "inputs": [
        {
          "indexed": true,
          "internalType": "address",
          "name": "user",
          "type": "address"
        },
        {
          "indexed": false,
          "internalType": "uint256",
          "name": "amount",
          "type": "uint256"
        }
      ],
      "name": "FundsLocked",
      "type": "event"
    },
    {
      "anonymous": false,
      "inputs": [
        {
          "indexed": true,
          "internalType": "address",
          "name": "user",
          "type": "address"
        },
        {
          "indexed": false,
          "internalType": "uint256",
          "name": "milestone",
          "type": "uint256"
        },
        {
          "indexed": false,
          "internalType": "uint256",
          "name": "amountReleased",
          "type": "uint256"
        }
      ],
      "name": "MilestoneCompleted",
      "type": "event"
    },
    {
      "anonymous": false,
      "inputs": [
        {
          "indexed": true,
          "internalType": "address",
          "name": "creator",
          "type": "address"
        },
        {
          "indexed": false,
          "internalType": "uint256",
          "name": "amount",
          "type": "uint256"
        }
      ],
      "name": "OwnersWithdrawl",
      "type": "event"
    },
    {
      "anonymous": false,
      "inputs": [
        {
          "indexed": false,
          "internalType": "uint256",
          "name": "amount",
          "type": "uint256"
        }
      ],
      "name": "PriceChange",
      "type": "event"
    },
    {
      "inputs": [
        {
          "internalType": "uint256",
          "name": "amount",
          "type": "uint256"
        }
      ],
      "name": "changeMileStonePrice",
      "outputs": [],
      "stateMutability": "nonpayable",
      "type": "function"
    },
    {
      "inputs": [
        {
          "internalType": "bytes",
          "name": "",
          "type": "bytes"
        }
      ],
      "name": "checkUpkeep",
      "outputs": [
        {
          "internalType": "bool",
          "name": "upkeepNeeded",
          "type": "bool"
        },
        {
          "internalType": "bytes",
          "name": "",
          "type": "bytes"
        }
      ],
      "stateMutability": "view",
      "type": "function"
    },
    {
      "inputs": [
        {
          "internalType": "string",
          "name": "productId",
          "type": "string"
        }
      ],
      "name": "completeMilestone",
      "outputs": [],
      "stateMutability": "nonpayable",
      "type": "function"
    },
    {
      "inputs": [],
      "name": "getCurrentTimestamp",
      "outputs": [
        {
          "internalType": "uint256",
          "name": "",
          "type": "uint256"
        }
      ],
      "stateMutability": "view",
      "type": "function"
    },
    {
      "inputs": [],
      "name": "getOwnerBalance",
      "outputs": [
        {
          "internalType": "uint256",
          "name": "",
          "type": "uint256"
        }
      ],
      "stateMutability": "view",
      "type": "function"
    },
    {
      "inputs": [],
      "name": "getPrice",
      "outputs": [
        {
          "internalType": "uint256",
          "name": "",
          "type": "uint256"
        }
      ],
      "stateMutability": "view",
      "type": "function"
    },
    {
      "inputs": [
        {
          "internalType": "string",
          "name": "productId",
          "type": "string"
        }
      ],
      "name": "getUserMilestoneDetails",
      "outputs": [
        {
          "components": [
            {
              "internalType": "address",
              "name": "creator",
              "type": "address"
            },
            {
              "internalType": "uint256",
              "name": "totalMilestones",
              "type": "uint256"
            },
            {
              "internalType": "uint256",
              "name": "totalAmount",
              "type": "uint256"
            },
            {
              "internalType": "uint256",
              "name": "milestoneCompleted",
              "type": "uint256"
            },
            {
              "internalType": "uint256",
              "name": "amountWithdrawn",
              "type": "uint256"
            },
            {
              "internalType": "uint256",
              "name": "createdAt",
              "type": "uint256"
            },
            {
              "internalType": "bool",
              "name": "isCompleted",
              "type": "bool"
            },
            {
              "internalType": "uint256",
              "name": "endsAt",
              "type": "uint256"
            }
          ],
          "internalType": "struct MileStones.Milestone",
          "name": "",
          "type": "tuple"
        }
      ],
      "stateMutability": "view",
      "type": "function"
    },
    {
      "inputs": [
        {
          "internalType": "string",
          "name": "productId",
          "type": "string"
        }
      ],
      "name": "lockFunds",
      "outputs": [],
      "stateMutability": "payable",
      "type": "function"
    },
    {
      "inputs": [
        {
          "internalType": "uint256",
          "name": "amount",
          "type": "uint256"
        }
      ],
      "name": "ownersWithdrawl",
      "outputs": [],
      "stateMutability": "nonpayable",
      "type": "function"
    },
    {
      "inputs": [
        {
          "internalType": "bytes",
          "name": "",
          "type": "bytes"
        }
      ],
      "name": "performUpkeep",
      "outputs": [],
      "stateMutability": "nonpayable",
      "type": "function"
    }
  ],
  "transactionHash": "0x4ffa45d5991584058ef21f8e5d8cb78c3c9637bf57fbbbfdd2f28454ee45f6c8",
  "args": [
    "0xf39Fd6e51aad88F6F4ce6aB8827279cffFb92266",
    259200,
    "10"
  ],
  "numDeployments": 1,
  "solcInputHash": "c3f6620a4fdfe8873be2f4f6089c5b3d",
  "bytecode": "0x60a060405234801561001057600080fd5b506040516116e33803806116e383398101604081905261002f916100be565b6001600160a01b0383166100895760405162461bcd60e51b815260206004820152601760248201527f496e76616c696420706c6174666f726d2077616c6c6574000000000000000000604482015260640160405180910390fd5b600280546001600160a01b0319166001600160a01b039490941693909317909255600060015542600455608052600555610101565b6000806000606084860312156100d357600080fd5b83516001600160a01b03811681146100ea57600080fd5b602085015160409095015190969495509392505050565b6080516115c761011c6000396000610ae101526115c76000f3fe6080604052600436106100915760003560e01c8063590791f211610059578063590791f21461019b5780636c9230db146101be5780636e04ff0d146101d15780638dd8fc0e146101ff57806398d5fdca1461021f57600080fd5b8063019b61ed1461009657806304afe05f14610126578063151802e9146101485780634585e33b1461015b5780634e2de6731461017b575b600080fd5b3480156100a257600080fd5b506100b66100b13660046111e0565b610234565b60405161011d919081516001600160a01b031681526020808301519082015260408083015190820152606080830151908201526080808301519082015260a0828101519082015260c08083015115159082015260e091820151918101919091526101000190565b60405180910390f35b34801561013257600080fd5b50610146610141366004611231565b610311565b005b6101466101563660046111e0565b61037f565b34801561016757600080fd5b5061014661017636600461124a565b6105f4565b34801561018757600080fd5b50610146610196366004611231565b610974565b3480156101a757600080fd5b506101b0610a85565b60405190815260200161011d565b3480156101ca57600080fd5b50426101b0565b3480156101dd57600080fd5b506101f16101ec3660046111e0565b610ab9565b60405161011d9291906112e0565b34801561020b57600080fd5b5061014661021a3660046111e0565b610b5e565b34801561022b57600080fd5b506005546101b0565b61028760405180610100016040528060006001600160a01b031681526020016000815260200160008152602001600081526020016000815260200160008152602001600015158152602001600081525090565b600082604051610297919061131c565b9081526040805191829003602090810183206101008401835280546001600160a01b031684526001810154918401919091526002810154918301919091526003810154606083015260048101546080830152600581015460a0830152600681015460ff16151560c08301526007015460e082015292915050565b6002546001600160a01b031633146103445760405162461bcd60e51b815260040161033b90611338565b60405180910390fd5b60058190556040518181527ff347ee99503bf19c028bd6b18f3c676e82a9bb5b2bb5225aebe0fd62fd6a0d199060200160405180910390a150565b6005543410156103e35760405162461bcd60e51b815260206004820152602960248201527f53656e7420616d6f756e74206d75737420626520686967686572207468616e20604482015268656e7472792066656560b81b606482015260840161033b565b6000816040516103f3919061131c565b9081526020016040518091039020600201546000146104545760405162461bcd60e51b815260206004820152601960248201527f5573657220616c7265616479206c6f636b65642066756e647300000000000000604482015260640161033b565b600380546001810182556000919091527fc2575a0e9e593c00f959f8c92f12db2869c3395a3b0502d05e2516446f71f85b016104908282611411565b50600060646104a0600a346114e7565b6104aa9190611504565b905060006104b88234611526565b905081600160008282546104cc9190611539565b90915550600090506104e14262093a80611539565b9050604051806101000160405280336001600160a01b031681526020016005815260200183815260200160008152602001600081526020014281526020016000151581526020018281525060008560405161053c919061131c565b9081526040805160209281900383018120845181546001600160a01b0319166001600160a01b03909116178155848401516001820155918401516002830155606084015160038301556080840151600483015560a0840151600583015560c084015160068301805460ff191691151591909117905560e09093015160079091015583825233917f1423e2a671bcc71c56f3c3cb78e3c96473d3ca5eb061acd0b93d1d0a6617f65891015b60405180910390a250505050565b600061060e60405180602001604052806000815250610ab9565b509050806106525760405162461bcd60e51b8152602060048201526011602482015270155c1ad9595c081b9bdd081b9959591959607a1b604482015260640161033b565b8061069e5760035460065447919060ff1660018111156106745761067461154c565b6040516350ca674360e01b815260048101939093526024830191909152604482015260640161033b565b6006805460ff19166001179055600380546040805160208084028201810190925282815260009390929091849084015b8282101561077a5783829060005260206000200180546106ed90611388565b80601f016020809104026020016040519081016040528092919081815260200182805461071990611388565b80156107665780601f1061073b57610100808354040283529160200191610766565b820191906000526020600020905b81548152906001019060200180831161074957829003601f168201915b5050505050815260200190600101906106ce565b50505050905060006001549050600080835167ffffffffffffffff8111156107a4576107a4611154565b6040519080825280602002602001820160405280156107d757816020015b60608152602001906001900390816107c25790505b50905060005b84518110156108985760008582815181106107fa576107fa611562565b6020026020010151905060008082604051610815919061131c565b908152602001604051809103902090504281600701541115610862578184868151811061084457610844611562565b6020026020010181905250848061085a90611578565b955050610883565b806004015481600201546108769190611526565b6108809087611539565b95505b5050808061089090611578565b9150506107dd565b50805182101561095f5760008267ffffffffffffffff8111156108bd576108bd611154565b6040519080825280602002602001820160405280156108f057816020015b60608152602001906001900390816108db5790505b50905060005b838110156109485782818151811061091057610910611562565b602002602001015182828151811061092a5761092a611562565b6020026020010181905250808061094090611578565b9150506108f6565b50805161095c90600390602084019061108f565b50505b505060015550506006805460ff191690555050565b6002546001600160a01b0316331461099e5760405162461bcd60e51b815260040161033b90611338565b606460015460466109af91906114e7565b6109b99190611504565b811115610a085760405162461bcd60e51b815260206004820152601e60248201527f416d6f756e74206578636565647320636f6c6c65637465642066756e64730000604482015260640161033b565b604051339082156108fc029083906000818181858888f19350505050158015610a35573d6000803e3d6000fd5b508060016000828254610a489190611526565b909155505060405181815233907fd6f42bc80d79f51c5ffb3438f457e9355868cd0f02ccdd4d946494f962f4ac079060200160405180910390a250565b6002546000906001600160a01b03163314610ab25760405162461bcd60e51b815260040161033b90611338565b5060015490565b600654600090606090829060ff166001811115610ad857610ad861154c565b600014905060007f000000000000000000000000000000000000000000000000000000000000000060045442610b0e9190611526565b600354911091501515471515828015610b245750835b8015610b2d5750805b8015610b365750815b60408051808201909152600381526203078360ec1b6020820152909890975095505050505050565b80336001600160a01b0316600082604051610b79919061131c565b908152604051908190036020019020546001600160a01b031614610bf75760405162461bcd60e51b815260206004820152602f60248201527f4f6e6c79207468652063726561746f722077616c6c65742063616e207065726660448201526e37b936903a3434b99030b1ba34b7b760891b606482015260840161033b565b60008083604051610c08919061131c565b908152602001604051809103902090506000816002015411610c5e5760405162461bcd60e51b815260206004820152600f60248201526e139bc8199d5b991cc81b1bd8dad959608a1b604482015260640161033b565b4281600701541015610ca65760405162461bcd60e51b8152602060048201526011602482015270135a5b195cdd1bdb9948115e1c1a5c9959607a1b604482015260640161033b565b8060010154816003015410610cfd5760405162461bcd60e51b815260206004820181905260248201527f416c6c206d696c6573746f6e657320616c726561647920636f6d706c65746564604482015260640161033b565b600081600101548260020154610d139190611504565b6003830180549192506000610d2783611578565b919050555081600101548260030154036110055760006003805480602002602001604051908101604052809291908181526020016000905b82821015610e0b578382906000526020600020018054610d7e90611388565b80601f0160208091040260200160405190810160405280929190818152602001828054610daa90611388565b8015610df75780601f10610dcc57610100808354040283529160200191610df7565b820191906000526020600020905b815481529060010190602001808311610dda57829003601f168201915b505050505081526020019060010190610d5f565b505050509050600060018251610e219190611526565b67ffffffffffffffff811115610e3957610e39611154565b604051908082528060200260200182016040528015610e6c57816020015b6060815260200190600190039081610e575790505b5090506000805b8351811015610f3f5787604051602001610e8d919061131c565b60405160208183030381529060405280519060200120848281518110610eb557610eb5611562565b6020026020010151604051602001610ecd919061131c565b6040516020818303038152906040528051906020012014610f2d57838181518110610efa57610efa611562565b6020026020010151838381518110610f1457610f14611562565b6020908102919091010152610f2a600183611539565b91505b80610f3781611578565b915050610e73565b508151610f5390600390602085019061108f565b50600085600401548660020154610f6a9190611526565b905080866004016000828254610f809190611539565b909155505060068601805460ff19166001179055604051339082156108fc029083906000818181858888f19350505050158015610fc1573d6000803e3d6000fd5b50600286015460405190815233907fd867cfadc420a62f8ddbfaf0ee08af17bef908fdeb647de660511cebe642486c9060200160405180910390a250505050611089565b808260040160008282546110199190611539565b9091555050604051339082156108fc029083906000818181858888f1935050505015801561104b573d6000803e3d6000fd5b506003820154604080519182526020820183905233917ff43bfc498688ec8f5ca2efe35ba87cb7b4f33c139cb2dc8e3f795527e3f08ccc91016105e6565b50505050565b8280548282559060005260206000209081019282156110d5579160200282015b828111156110d557825182906110c59082611411565b50916020019190600101906110af565b506110e19291506110e5565b5090565b808211156110e15760006110f98282611102565b506001016110e5565b50805461110e90611388565b6000825580601f1061111e575050565b601f01602090049060005260206000209081019061113c919061113f565b50565b5b808211156110e15760008155600101611140565b634e487b7160e01b600052604160045260246000fd5b600067ffffffffffffffff8084111561118557611185611154565b604051601f8501601f19908116603f011681019082821181831017156111ad576111ad611154565b816040528093508581528686860111156111c657600080fd5b858560208301376000602087830101525050509392505050565b6000602082840312156111f257600080fd5b813567ffffffffffffffff81111561120957600080fd5b8201601f8101841361121a57600080fd5b6112298482356020840161116a565b949350505050565b60006020828403121561124357600080fd5b5035919050565b6000806020838503121561125d57600080fd5b823567ffffffffffffffff8082111561127557600080fd5b818501915085601f83011261128957600080fd5b81358181111561129857600080fd5b8660208285010111156112aa57600080fd5b60209290920196919550909350505050565b60005b838110156112d75781810151838201526020016112bf565b50506000910152565b821515815260406020820152600082518060408401526113078160608501602087016112bc565b601f01601f1916919091016060019392505050565b6000825161132e8184602087016112bc565b9190910192915050565b60208082526030908201527f4f6e6c792074686520706c6174666f726d2077616c6c65742063616e2070657260408201526f3337b936903a3434b99030b1ba34b7b760811b606082015260800190565b600181811c9082168061139c57607f821691505b6020821081036113bc57634e487b7160e01b600052602260045260246000fd5b50919050565b601f82111561140c57600081815260208120601f850160051c810160208610156113e95750805b601f850160051c820191505b81811015611408578281556001016113f5565b5050505b505050565b815167ffffffffffffffff81111561142b5761142b611154565b61143f816114398454611388565b846113c2565b602080601f831160018114611474576000841561145c5750858301515b600019600386901b1c1916600185901b178555611408565b600085815260208120601f198616915b828110156114a357888601518255948401946001909101908401611484565b50858210156114c15787850151600019600388901b60f8161c191681555b5050505050600190811b01905550565b634e487b7160e01b600052601160045260246000fd5b80820281158282048414176114fe576114fe6114d1565b92915050565b60008261152157634e487b7160e01b600052601260045260246000fd5b500490565b818103818111156114fe576114fe6114d1565b808201808211156114fe576114fe6114d1565b634e487b7160e01b600052602160045260246000fd5b634e487b7160e01b600052603260045260246000fd5b60006001820161158a5761158a6114d1565b506001019056fea2646970667358221220478052114249be6e4aadc3233fde40584d631620c9f99b7df6f0c078fbae08cf64736f6c63430008130033",
  "devdoc": {
    "kind": "dev",
    "methods": {},
    "version": 1
  },
  "userdoc": {
    "kind": "user",
    "methods": {},
    "version": 1
  },
  "storageLayout": {
    "storage": [
      {
        "astId": 56,
        "contract": "contracts/MileStones.sol:MileStones",
        "label": "products",
        "offset": 0,
        "slot": "0",
        "type": "t_mapping(t_string_memory_ptr,t_struct(Milestone)51_storage)"
      },
      {
        "astId": 64,
        "contract": "contracts/MileStones.sol:MileStones",
        "label": "owner_balance",
        "offset": 0,
        "slot": "1",
        "type": "t_uint256"
      },
      {
        "astId": 66,
        "contract": "contracts/MileStones.sol:MileStones",
        "label": "platformWallet",
        "offset": 0,
        "slot": "2",
        "type": "t_address"
      },
      {
        "astId": 69,
        "contract": "contracts/MileStones.sol:MileStones",
        "label": "activeMilestones",
        "offset": 0,
        "slot": "3",
        "type": "t_array(t_string_storage)dyn_storage"
      },
      {
        "astId": 73,
        "contract": "contracts/MileStones.sol:MileStones",
        "label": "s_lastTimeStamp",
        "offset": 0,
        "slot": "4",
        "type": "t_uint256"
      },
      {
        "astId": 75,
        "contract": "contracts/MileStones.sol:MileStones",
        "label": "s_milestone_price",
        "offset": 0,
        "slot": "5",
        "type": "t_uint256"
      },
      {
        "astId": 108,
        "contract": "contracts/MileStones.sol:MileStones",
        "label": "s_milestoneState",
        "offset": 0,
        "slot": "6",
        "type": "t_enum(MileStoneState)34"
      }
    ],
    "types": {
      "t_address": {
        "encoding": "inplace",
        "label": "address",
        "numberOfBytes": "20"
      },
      "t_array(t_string_storage)dyn_storage": {
        "base": "t_string_storage",
        "encoding": "dynamic_array",
        "label": "string[]",
        "numberOfBytes": "32"
      },
      "t_bool": {
        "encoding": "inplace",
        "label": "bool",
        "numberOfBytes": "1"
      },
      "t_enum(MileStoneState)34": {
        "encoding": "inplace",
        "label": "enum MileStones.MileStoneState",
        "numberOfBytes": "1"
      },
      "t_mapping(t_string_memory_ptr,t_struct(Milestone)51_storage)": {
        "encoding": "mapping",
        "key": "t_string_memory_ptr",
        "label": "mapping(string => struct MileStones.Milestone)",
        "numberOfBytes": "32",
        "value": "t_struct(Milestone)51_storage"
      },
      "t_string_memory_ptr": {
        "encoding": "bytes",
        "label": "string",
        "numberOfBytes": "32"
      },
      "t_string_storage": {
        "encoding": "bytes",
        "label": "string",
        "numberOfBytes": "32"
      },
      "t_struct(Milestone)51_storage": {
        "encoding": "inplace",
        "label": "struct MileStones.Milestone",
        "members": [
          {
            "astId": 36,
            "contract": "contracts/MileStones.sol:MileStones",
            "label": "creator",
            "offset": 0,
            "slot": "0",
            "type": "t_address"
          },
          {
            "astId": 38,
            "contract": "contracts/MileStones.sol:MileStones",
            "label": "totalMilestones",
            "offset": 0,
            "slot": "1",
            "type": "t_uint256"
          },
          {
            "astId": 40,
            "contract": "contracts/MileStones.sol:MileStones",
            "label": "totalAmount",
            "offset": 0,
            "slot": "2",
            "type": "t_uint256"
          },
          {
            "astId": 42,
            "contract": "contracts/MileStones.sol:MileStones",
            "label": "milestoneCompleted",
            "offset": 0,
            "slot": "3",
            "type": "t_uint256"
          },
          {
            "astId": 44,
            "contract": "contracts/MileStones.sol:MileStones",
            "label": "amountWithdrawn",
            "offset": 0,
            "slot": "4",
            "type": "t_uint256"
          },
          {
            "astId": 46,
            "contract": "contracts/MileStones.sol:MileStones",
            "label": "createdAt",
            "offset": 0,
            "slot": "5",
            "type": "t_uint256"
          },
          {
            "astId": 48,
            "contract": "contracts/MileStones.sol:MileStones",
            "label": "isCompleted",
            "offset": 0,
            "slot": "6",
            "type": "t_bool"
          },
          {
            "astId": 50,
            "contract": "contracts/MileStones.sol:MileStones",
            "label": "endsAt",
            "offset": 0,
            "slot": "7",
            "type": "t_uint256"
          }
        ],
        "numberOfBytes": "256"
      },
      "t_uint256": {
        "encoding": "inplace",
        "label": "uint256",
        "numberOfBytes": "32"
      }
    }
  }
}