{
  "address": "0xf7d1Bc694d1dD323feB2f42BFce76eab161425d3",
  "abi": [
    {
      "inputs": [
        {
          "internalType": "address",
          "name": "_platformWallet",
          "type": "address"
        }
      ],
      "stateMutability": "nonpayable",
      "type": "constructor"
    },
    {
      "anonymous": false,
      "inputs": [
        {
          "indexed": true,
          "internalType": "address",
          "name": "user",
          "type": "address"
        },
        {
          "indexed": false,
          "internalType": "uint256",
          "name": "totalAmount",
          "type": "uint256"
        }
      ],
      "name": "AllFundsWithdrawn",
      "type": "event"
    },
    {
      "anonymous": false,
      "inputs": [
        {
          "indexed": true,
          "internalType": "address",
          "name": "user",
          "type": "address"
        },
        {
          "indexed": false,
          "internalType": "uint256",
          "name": "amount",
          "type": "uint256"
        }
      ],
      "name": "FundsLocked",
      "type": "event"
    },
    {
      "anonymous": false,
      "inputs": [
        {
          "indexed": true,
          "internalType": "address",
          "name": "user",
          "type": "address"
        },
        {
          "indexed": false,
          "internalType": "uint256",
          "name": "milestone",
          "type": "uint256"
        },
        {
          "indexed": false,
          "internalType": "uint256",
          "name": "amountReleased",
          "type": "uint256"
        }
      ],
      "name": "MilestoneCompleted",
      "type": "event"
    },
    {
      "inputs": [],
      "name": "completeMilestone",
      "outputs": [],
      "stateMutability": "nonpayable",
      "type": "function"
    },
    {
      "inputs": [
        {
          "internalType": "address",
          "name": "_user",
          "type": "address"
        }
      ],
      "name": "getUserDetails",
      "outputs": [
        {
          "components": [
            {
              "internalType": "uint256",
              "name": "totalAmount",
              "type": "uint256"
            },
            {
              "internalType": "uint256",
              "name": "milestoneCompleted",
              "type": "uint256"
            },
            {
              "internalType": "uint256",
              "name": "amountWithdrawn",
              "type": "uint256"
            }
          ],
          "internalType": "struct MileStones.User",
          "name": "",
          "type": "tuple"
        }
      ],
      "stateMutability": "view",
      "type": "function"
    },
    {
      "inputs": [],
      "name": "lockFunds",
      "outputs": [],
      "stateMutability": "payable",
      "type": "function"
    },
    {
      "inputs": [],
      "name": "milestoneCount",
      "outputs": [
        {
          "internalType": "uint256",
          "name": "",
          "type": "uint256"
        }
      ],
      "stateMutability": "view",
      "type": "function"
    },
    {
      "inputs": [],
      "name": "platformFeePercentage",
      "outputs": [
        {
          "internalType": "uint256",
          "name": "",
          "type": "uint256"
        }
      ],
      "stateMutability": "view",
      "type": "function"
    },
    {
      "inputs": [],
      "name": "platformWallet",
      "outputs": [
        {
          "internalType": "address",
          "name": "",
          "type": "address"
        }
      ],
      "stateMutability": "view",
      "type": "function"
    },
    {
      "inputs": [
        {
          "internalType": "address",
          "name": "",
          "type": "address"
        }
      ],
      "name": "users",
      "outputs": [
        {
          "internalType": "uint256",
          "name": "totalAmount",
          "type": "uint256"
        },
        {
          "internalType": "uint256",
          "name": "milestoneCompleted",
          "type": "uint256"
        },
        {
          "internalType": "uint256",
          "name": "amountWithdrawn",
          "type": "uint256"
        }
      ],
      "stateMutability": "view",
      "type": "function"
    }
  ],
  "transactionHash": "0x70eb6aad65ada76543bff516012cec24fa8509d016ef6069028b4a8a62adec43",
  "args": [
    "0x5D62c548F71238634c94539B488d03405cC180A9"
  ],
  "numDeployments": 2,
  "solcInputHash": "b31d53c6327201209cb1b0f7350d1d60",
  "bytecode": "0x608060405260046001556002805534801561001957600080fd5b50604051610e23380380610e23833981810160405281019061003b9190610154565b600073ffffffffffffffffffffffffffffffffffffffff168173ffffffffffffffffffffffffffffffffffffffff16036100aa576040517f08c379a00000000000000000000000000000000000000000000000000000000081526004016100a1906101de565b60405180910390fd5b80600360006101000a81548173ffffffffffffffffffffffffffffffffffffffff021916908373ffffffffffffffffffffffffffffffffffffffff160217905550506101fe565b600080fd5b600073ffffffffffffffffffffffffffffffffffffffff82169050919050565b6000610121826100f6565b9050919050565b61013181610116565b811461013c57600080fd5b50565b60008151905061014e81610128565b92915050565b60006020828403121561016a576101696100f1565b5b60006101788482850161013f565b91505092915050565b600082825260208201905092915050565b7f496e76616c696420706c6174666f726d2077616c6c6574000000000000000000600082015250565b60006101c8601783610181565b91506101d382610192565b602082019050919050565b600060208201905081810360008301526101f7816101bb565b9050919050565b610c168061020d6000396000f3fe6080604052600436106100705760003560e01c8063cdd78cfc1161004e578063cdd78cfc1461011c578063e2e764d414610147578063fa2af9da1461015e578063fa9befda1461018957610070565b80630681ca5514610075578063a87430ba146100a0578063cc3d967b146100df575b600080fd5b34801561008157600080fd5b5061008a610193565b60405161009791906106fd565b60405180910390f35b3480156100ac57600080fd5b506100c760048036038101906100c2919061077b565b610199565b6040516100d6939291906107a8565b60405180910390f35b3480156100eb57600080fd5b506101066004803603810190610101919061077b565b6101c3565b6040516101139190610830565b60405180910390f35b34801561012857600080fd5b50610131610239565b60405161013e91906106fd565b60405180910390f35b34801561015357600080fd5b5061015c61023f565b005b34801561016a57600080fd5b506101736104da565b604051610180919061085a565b60405180910390f35b610191610500565b005b60015481565b60006020528060005260406000206000915090508060000154908060010154908060020154905083565b6101cb6106c3565b6000808373ffffffffffffffffffffffffffffffffffffffff1673ffffffffffffffffffffffffffffffffffffffff16815260200190815260200160002060405180606001604052908160008201548152602001600182015481526020016002820154815250509050919050565b60025481565b60008060003373ffffffffffffffffffffffffffffffffffffffff1673ffffffffffffffffffffffffffffffffffffffff168152602001908152602001600020905060008160000154116102c8576040517f08c379a00000000000000000000000000000000000000000000000000000000081526004016102bf906108d2565b60405180910390fd5b600154816001015410610310576040517f08c379a00000000000000000000000000000000000000000000000000000000081526004016103079061093e565b60405180910390fd5b6000600154826000015461032491906109bc565b905081600101600081548092919061033b906109ed565b919050555060015482600101540361041f576000826002015483600001546103639190610a35565b9050808360020160008282546103799190610a69565b925050819055503373ffffffffffffffffffffffffffffffffffffffff166108fc829081150290604051600060405180830381858888f193505050501580156103c6573d6000803e3d6000fd5b503373ffffffffffffffffffffffffffffffffffffffff167fd867cfadc420a62f8ddbfaf0ee08af17bef908fdeb647de660511cebe642486c846000015460405161041191906106fd565b60405180910390a2506104d6565b808260020160008282546104339190610a69565b925050819055503373ffffffffffffffffffffffffffffffffffffffff166108fc829081150290604051600060405180830381858888f19350505050158015610480573d6000803e3d6000fd5b503373ffffffffffffffffffffffffffffffffffffffff167ff43bfc498688ec8f5ca2efe35ba87cb7b4f33c139cb2dc8e3f795527e3f08ccc8360010154836040516104cd929190610a9d565b60405180910390a25b5050565b600360009054906101000a900473ffffffffffffffffffffffffffffffffffffffff1681565b60003411610543576040517f08c379a000000000000000000000000000000000000000000000000000000000815260040161053a90610b12565b60405180910390fd5b60008060003373ffffffffffffffffffffffffffffffffffffffff1673ffffffffffffffffffffffffffffffffffffffff16815260200190815260200160002060000154146105c7576040517f08c379a00000000000000000000000000000000000000000000000000000000081526004016105be90610b7e565b60405180910390fd5b60006064600254346105d99190610b9e565b6105e391906109bc565b9050600081346105f39190610a35565b905060405180606001604052808281526020016000815260200160008152506000803373ffffffffffffffffffffffffffffffffffffffff1673ffffffffffffffffffffffffffffffffffffffff1681526020019081526020016000206000820151816000015560208201518160010155604082015181600201559050503373ffffffffffffffffffffffffffffffffffffffff167f1423e2a671bcc71c56f3c3cb78e3c96473d3ca5eb061acd0b93d1d0a6617f658826040516106b791906106fd565b60405180910390a25050565b60405180606001604052806000815260200160008152602001600081525090565b6000819050919050565b6106f7816106e4565b82525050565b600060208201905061071260008301846106ee565b92915050565b600080fd5b600073ffffffffffffffffffffffffffffffffffffffff82169050919050565b60006107488261071d565b9050919050565b6107588161073d565b811461076357600080fd5b50565b6000813590506107758161074f565b92915050565b60006020828403121561079157610790610718565b5b600061079f84828501610766565b91505092915050565b60006060820190506107bd60008301866106ee565b6107ca60208301856106ee565b6107d760408301846106ee565b949350505050565b6107e8816106e4565b82525050565b60608201600082015161080460008501826107df565b50602082015161081760208501826107df565b50604082015161082a60408501826107df565b50505050565b600060608201905061084560008301846107ee565b92915050565b6108548161073d565b82525050565b600060208201905061086f600083018461084b565b92915050565b600082825260208201905092915050565b7f4e6f2066756e6473206c6f636b65640000000000000000000000000000000000600082015250565b60006108bc600f83610875565b91506108c782610886565b602082019050919050565b600060208201905081810360008301526108eb816108af565b9050919050565b7f416c6c206d696c6573746f6e657320616c726561647920636f6d706c65746564600082015250565b6000610928602083610875565b9150610933826108f2565b602082019050919050565b600060208201905081810360008301526109578161091b565b9050919050565b7f4e487b7100000000000000000000000000000000000000000000000000000000600052601260045260246000fd5b7f4e487b7100000000000000000000000000000000000000000000000000000000600052601160045260246000fd5b60006109c7826106e4565b91506109d2836106e4565b9250826109e2576109e161095e565b5b828204905092915050565b60006109f8826106e4565b91507fffffffffffffffffffffffffffffffffffffffffffffffffffffffffffffffff8203610a2a57610a2961098d565b5b600182019050919050565b6000610a40826106e4565b9150610a4b836106e4565b9250828203905081811115610a6357610a6261098d565b5b92915050565b6000610a74826106e4565b9150610a7f836106e4565b9250828201905080821115610a9757610a9661098d565b5b92915050565b6000604082019050610ab260008301856106ee565b610abf60208301846106ee565b9392505050565b7f46756e6473206d7573742062652067726561746572207468616e203000000000600082015250565b6000610afc601c83610875565b9150610b0782610ac6565b602082019050919050565b60006020820190508181036000830152610b2b81610aef565b9050919050565b7f5573657220616c7265616479206c6f636b65642066756e647300000000000000600082015250565b6000610b68601983610875565b9150610b7382610b32565b602082019050919050565b60006020820190508181036000830152610b9781610b5b565b9050919050565b6000610ba9826106e4565b9150610bb4836106e4565b9250828202610bc2816106e4565b91508282048414831517610bd957610bd861098d565b5b509291505056fea264697066735822122065f4cfa6502f30b1a99802a708a5325b831e80055203db0ee1121bb4cdedf6d164736f6c634300081c0033",
  "devdoc": {
    "kind": "dev",
    "methods": {},
    "version": 1
  },
  "userdoc": {
    "kind": "user",
    "methods": {},
    "version": 1
  },
  "storageLayout": {
    "storage": [
      {
        "astId": 13,
        "contract": "contracts/MileStones.sol:MileStones",
        "label": "users",
        "offset": 0,
        "slot": "0",
        "type": "t_mapping(t_address,t_struct(User)8_storage)"
      },
      {
        "astId": 16,
        "contract": "contracts/MileStones.sol:MileStones",
        "label": "milestoneCount",
        "offset": 0,
        "slot": "1",
        "type": "t_uint256"
      },
      {
        "astId": 19,
        "contract": "contracts/MileStones.sol:MileStones",
        "label": "platformFeePercentage",
        "offset": 0,
        "slot": "2",
        "type": "t_uint256"
      },
      {
        "astId": 21,
        "contract": "contracts/MileStones.sol:MileStones",
        "label": "platformWallet",
        "offset": 0,
        "slot": "3",
        "type": "t_address"
      }
    ],
    "types": {
      "t_address": {
        "encoding": "inplace",
        "label": "address",
        "numberOfBytes": "20"
      },
      "t_mapping(t_address,t_struct(User)8_storage)": {
        "encoding": "mapping",
        "key": "t_address",
        "label": "mapping(address => struct MileStones.User)",
        "numberOfBytes": "32",
        "value": "t_struct(User)8_storage"
      },
      "t_struct(User)8_storage": {
        "encoding": "inplace",
        "label": "struct MileStones.User",
        "members": [
          {
            "astId": 3,
            "contract": "contracts/MileStones.sol:MileStones",
            "label": "totalAmount",
            "offset": 0,
            "slot": "0",
            "type": "t_uint256"
          },
          {
            "astId": 5,
            "contract": "contracts/MileStones.sol:MileStones",
            "label": "milestoneCompleted",
            "offset": 0,
            "slot": "1",
            "type": "t_uint256"
          },
          {
            "astId": 7,
            "contract": "contracts/MileStones.sol:MileStones",
            "label": "amountWithdrawn",
            "offset": 0,
            "slot": "2",
            "type": "t_uint256"
          }
        ],
        "numberOfBytes": "96"
      },
      "t_uint256": {
        "encoding": "inplace",
        "label": "uint256",
        "numberOfBytes": "32"
      }
    }
  }
}